{
  "contractName": "TodoList",
  "abi": [
    {
      "inputs": [],
      "payable": false,
      "stateMutability": "nonpayable",
      "type": "constructor"
    },
    {
      "constant": true,
      "inputs": [
        {
          "internalType": "uint256",
          "name": "",
          "type": "uint256"
        }
      ],
      "name": "tasks",
      "outputs": [
        {
          "internalType": "uint256",
          "name": "id",
          "type": "uint256"
        },
        {
          "internalType": "string",
          "name": "description",
          "type": "string"
        },
        {
          "internalType": "bool",
          "name": "done",
          "type": "bool"
        }
      ],
      "payable": false,
      "stateMutability": "view",
      "type": "function"
    },
    {
      "constant": true,
      "inputs": [],
      "name": "todoCount",
      "outputs": [
        {
          "internalType": "uint256",
          "name": "",
          "type": "uint256"
        }
      ],
      "payable": false,
      "stateMutability": "view",
      "type": "function"
    },
    {
      "constant": false,
      "inputs": [
        {
          "internalType": "string",
          "name": "_description",
          "type": "string"
        }
      ],
      "name": "addTask",
      "outputs": [],
      "payable": false,
      "stateMutability": "nonpayable",
      "type": "function"
    }
  ],
  "bytecode": "0x60806040526000805534801561001457600080fd5b5060408051808201909152601a81527f57656c636f6d6520746f20626c6f636b636861696e207461736b000000000000602082015261005b906001600160e01b0361006016565b61016b565b6000805460019081018083556040805160608101825282815260208082018781528284018790528487528582529290952081518155915180519395919492936100b09385019291909101906100d0565b50604091909101516002909101805460ff19169115159190911790555050565b828054600181600116156101000203166002900490600052602060002090601f016020900481019282601f1061011157805160ff191683800117855561013e565b8280016001018555821561013e579182015b8281111561013e578251825591602001919060010190610123565b5061014a92915061014e565b5090565b61016891905b8082111561014a5760008155600101610154565b90565b6103a48061017a6000396000f3fe608060405234801561001057600080fd5b50600436106100415760003560e01c806367238562146100465780638d977672146100ee578063fe0dee1714610195575b600080fd5b6100ec6004803603602081101561005c57600080fd5b81019060208101813564010000000081111561007757600080fd5b82018360208201111561008957600080fd5b803590602001918460018302840111640100000000831117156100ab57600080fd5b91908080601f0160208091040260200160405190810160405280939291908181526020018383808284376000920191909152509295506101af945050505050565b005b61010b6004803603602081101561010457600080fd5b503561021f565b604051808481526020018060200183151515158152602001828103825284818151815260200191508051906020019080838360005b83811015610158578181015183820152602001610140565b50505050905090810190601f1680156101855780820380516001836020036101000a031916815260200191505b5094505050505060405180910390f35b61019d6102ce565b60408051918252519081900360200190f35b6000805460019081018083556040805160608101825282815260208082018781528284018790528487528582529290952081518155915180519395919492936101ff9385019291909101906102d4565b50604091909101516002909101805460ff19169115159190911790555050565b600160208181526000928352604092839020805481840180548651600296821615610100026000190190911695909504601f810185900485028601850190965285855290949193929091908301828280156102bb5780601f10610290576101008083540402835291602001916102bb565b820191906000526020600020905b81548152906001019060200180831161029e57829003601f168201915b5050506002909301549192505060ff1683565b60005481565b828054600181600116156101000203166002900490600052602060002090601f016020900481019282601f1061031557805160ff1916838001178555610342565b82800160010185558215610342579182015b82811115610342578251825591602001919060010190610327565b5061034e929150610352565b5090565b61036c91905b8082111561034e5760008155600101610358565b9056fea265627a7a72315820f1239785c421e228e41bf98860db0487d3c5e01c08c3a84c6fa38fff572d2cea64736f6c63430005100032",
  "source": "pragma solidity ^0.5.0;\r\n\r\ncontract TodoList {\r\n    uint public todoCount = 0;\r\n\r\n    constructor() public {\r\n        addTask('Welcome to blockchain task');\r\n    }\r\n\r\n    struct Task {\r\n        uint id;\r\n        string description;\r\n        bool done;\r\n    }\r\n\r\n    mapping (uint => Task) public tasks;\r\n\r\n    function addTask(string memory _description) public {\r\n        uint id = ++todoCount;\r\n        tasks[todoCount] = Task(todoCount, _description, false);\r\n    }\r\n}",
  "sourcePath": "C:/Users/HP/OneDrive/Documents/work/toDo-list/contracts/TodoList.sol",
  "compiler": {
    "name": "solc",
    "version": "0.5.16+commit.9c3226ce.Emscripten.clang"
  },
  "schemaVersion": "3.4.1",
  "updatedAt": "2021-07-31T20:14:00.348Z",
  "devdoc": {
    "methods": {}
  },
  "userdoc": {
    "methods": {}
  }
}