{
  "contractName": "TodoList",
  "abi": [
    {
      "inputs": [],
      "payable": false,
      "stateMutability": "nonpayable",
      "type": "constructor"
    },
    {
      "anonymous": false,
      "inputs": [
        {
          "indexed": false,
          "internalType": "uint256",
          "name": "id",
          "type": "uint256"
        },
        {
          "indexed": false,
          "internalType": "string",
          "name": "description",
          "type": "string"
        },
        {
          "indexed": false,
          "internalType": "bool",
          "name": "done",
          "type": "bool"
        }
      ],
      "name": "TaskAdded",
      "type": "event"
    },
    {
      "constant": true,
      "inputs": [
        {
          "internalType": "uint256",
          "name": "",
          "type": "uint256"
        }
      ],
      "name": "tasks",
      "outputs": [
        {
          "internalType": "uint256",
          "name": "id",
          "type": "uint256"
        },
        {
          "internalType": "string",
          "name": "description",
          "type": "string"
        },
        {
          "internalType": "bool",
          "name": "done",
          "type": "bool"
        }
      ],
      "payable": false,
      "stateMutability": "view",
      "type": "function"
    },
    {
      "constant": true,
      "inputs": [],
      "name": "todoCount",
      "outputs": [
        {
          "internalType": "uint256",
          "name": "",
          "type": "uint256"
        }
      ],
      "payable": false,
      "stateMutability": "view",
      "type": "function"
    },
    {
      "constant": false,
      "inputs": [
        {
          "internalType": "string",
          "name": "_description",
          "type": "string"
        }
      ],
      "name": "addTask",
      "outputs": [],
      "payable": false,
      "stateMutability": "nonpayable",
      "type": "function"
    }
  ],
  "bytecode": "0x60806040526000805534801561001457600080fd5b506100596040518060400160405280601a81526020017f57656c636f6d6520746f20626c6f636b636861696e207461736b00000000000081525061005e60201b60201c565b61024a565b600080600081546001019190508190559050604051806060016040528060005481526020018381526020016000151581525060016000805481526020019081526020016000206000820151816000015560208201518160010190805190602001906100ca9291906101a5565b5060408201518160020160006101000a81548160ff0219169083151502179055509050507f21807e0d6dbaf49ba098938b6b472ebe4bf827bb2f6e95acbef0c69d42ec8439600054836000604051808481526020018060200183151515158152602001828103825284818151815260200191508051906020019080838360005b8381101561016557808201518184015260208101905061014a565b50505050905090810190601f1680156101925780820380516001836020036101000a031916815260200191505b5094505050505060405180910390a15050565b828054600181600116156101000203166002900490600052602060002090601f016020900481019282601f106101e657805160ff1916838001178555610214565b82800160010185558215610214579182015b828111156102135782518255916020019190600101906101f8565b5b5090506102219190610225565b5090565b61024791905b8082111561024357600081600090555060010161022b565b5090565b90565b6104ce806102596000396000f3fe608060405234801561001057600080fd5b50600436106100415760003560e01c806367238562146100465780638d97767214610101578063fe0dee17146101ba575b600080fd5b6100ff6004803603602081101561005c57600080fd5b810190808035906020019064010000000081111561007957600080fd5b82018360208201111561008b57600080fd5b803590602001918460018302840111640100000000831117156100ad57600080fd5b91908080601f016020809104026020016040519081016040528093929190818152602001838380828437600081840152601f19601f8201169050808301925050505050505091929192905050506101d8565b005b61012d6004803603602081101561011757600080fd5b810190808035906020019092919050505061031f565b604051808481526020018060200183151515158152602001828103825284818151815260200191508051906020019080838360005b8381101561017d578082015181840152602081019050610162565b50505050905090810190601f1680156101aa5780820380516001836020036101000a031916815260200191505b5094505050505060405180910390f35b6101c26103ee565b6040518082815260200191505060405180910390f35b600080600081546001019190508190559050604051806060016040528060005481526020018381526020016000151581525060016000805481526020019081526020016000206000820151816000015560208201518160010190805190602001906102449291906103f4565b5060408201518160020160006101000a81548160ff0219169083151502179055509050507f21807e0d6dbaf49ba098938b6b472ebe4bf827bb2f6e95acbef0c69d42ec8439600054836000604051808481526020018060200183151515158152602001828103825284818151815260200191508051906020019080838360005b838110156102df5780820151818401526020810190506102c4565b50505050905090810190601f16801561030c5780820380516001836020036101000a031916815260200191505b5094505050505060405180910390a15050565b6001602052806000526040600020600091509050806000015490806001018054600181600116156101000203166002900480601f0160208091040260200160405190810160405280929190818152602001828054600181600116156101000203166002900480156103d15780601f106103a6576101008083540402835291602001916103d1565b820191906000526020600020905b8154815290600101906020018083116103b457829003601f168201915b5050505050908060020160009054906101000a900460ff16905083565b60005481565b828054600181600116156101000203166002900490600052602060002090601f016020900481019282601f1061043557805160ff1916838001178555610463565b82800160010185558215610463579182015b82811115610462578251825591602001919060010190610447565b5b5090506104709190610474565b5090565b61049691905b8082111561049257600081600090555060010161047a565b5090565b9056fea265627a7a7231582088df9d6a1595d11388fe3f56aa0bdd750b7e10c63c4d99812c266ea91f2c07f564736f6c63430005100032",
  "source": "pragma solidity ^0.5.0;\r\n\r\ncontract TodoList {\r\n    uint public todoCount = 0;\r\n\r\n    constructor() public {\r\n        addTask('Welcome to blockchain task');\r\n    }\r\n\r\n    struct Task {\r\n        uint id;\r\n        string description;\r\n        bool done;\r\n    }\r\n\r\n    event TaskAdded(\r\n        uint id,\r\n        string description,\r\n        bool done\r\n    );\r\n\r\n    mapping (uint => Task) public tasks;\r\n\r\n    function addTask(string memory _description) public {\r\n        uint id = ++todoCount;\r\n        tasks[todoCount] = Task(todoCount, _description, false);\r\n        emit TaskAdded(todoCount, _description, false);\r\n    }\r\n}",
  "sourcePath": "C:/Users/HP/OneDrive/Documents/work/toDo-list/contracts/TodoList.sol",
  "compiler": {
    "name": "solc",
    "version": "0.5.16+commit.9c3226ce.Emscripten.clang"
  },
  "schemaVersion": "3.4.1",
  "updatedAt": "2021-07-31T20:36:14.393Z",
  "networkType": "ethereum",
  "devdoc": {
    "methods": {}
  },
  "userdoc": {
    "methods": {}
  }
}